{
  "contractName": "NFTMarketPlace",
  "abi": [
    {
      "inputs": [
        {
          "internalType": "string",
          "name": "",
          "type": "string"
        }
      ],
      "name": "nameToNFT",
      "outputs": [
        {
          "internalType": "uint256",
          "name": "",
          "type": "uint256"
        }
      ],
      "stateMutability": "view",
      "type": "function"
    },
    {
      "inputs": [
        {
          "internalType": "string",
          "name": "_nameOfNFTPerson",
          "type": "string"
        },
        {
          "internalType": "string",
          "name": "_nameOfNFT",
          "type": "string"
        },
        {
          "internalType": "uint256",
          "name": "_priceOfNFT",
          "type": "uint256"
        }
      ],
      "name": "EnlistPeopleAndNFT",
      "outputs": [],
      "stateMutability": "nonpayable",
      "type": "function"
    },
    {
      "inputs": [
        {
          "internalType": "string",
          "name": "_candidateName",
          "type": "string"
        }
      ],
      "name": "CandidatesNames",
      "outputs": [],
      "stateMutability": "nonpayable",
      "type": "function"
    },
    {
      "inputs": [],
      "name": "retrieveCandidateName",
      "outputs": [
        {
          "internalType": "string[]",
          "name": "",
          "type": "string[]"
        }
      ],
      "stateMutability": "view",
      "type": "function"
    },
    {
      "inputs": [
        {
          "internalType": "string",
          "name": "_candidateName",
          "type": "string"
        },
        {
          "internalType": "string",
          "name": "_GivenNFT",
          "type": "string"
        },
        {
          "internalType": "uint256",
          "name": "_GivenownershipValue",
          "type": "uint256"
        }
      ],
      "name": "selectedCandidatesAndGivingOwnerShip",
      "outputs": [],
      "stateMutability": "nonpayable",
      "type": "function"
    },
    {
      "inputs": [],
      "name": "showingOwnershipOfNFTPeople",
      "outputs": [
        {
          "internalType": "string",
          "name": "",
          "type": "string"
        },
        {
          "internalType": "string",
          "name": "",
          "type": "string"
        },
        {
          "internalType": "uint256",
          "name": "",
          "type": "uint256"
        }
      ],
      "stateMutability": "view",
      "type": "function"
    },
    {
      "inputs": [],
      "name": "showingOwnershipOfMultiplePeople",
      "outputs": [
        {
          "internalType": "string",
          "name": "",
          "type": "string"
        },
        {
          "internalType": "string",
          "name": "",
          "type": "string"
        },
        {
          "internalType": "uint256",
          "name": "",
          "type": "uint256"
        }
      ],
      "stateMutability": "view",
      "type": "function"
    }
  ],
  "bytecode": "0x608060405234801561001057600080fd5b50610e6c806100206000396000f3fe608060405234801561001057600080fd5b506004361061007d5760003560e01c80639b863fc81161005b5780639b863fc8146100ee578063a48624261461010a578063b424820e1461012a578063c66a4abd146101485761007d565b8063175294c814610082578063179f841e146100b257806392d73ec9146100ce575b600080fd5b61009c600480360381019061009791906108e5565b610164565b6040516100a99190610947565b60405180910390f35b6100cc60048036038101906100c7919061098e565b610192565b005b6100d6610246565b6040516100e593929190610aa1565b60405180910390f35b610108600480360381019061010391906108e5565b610374565b005b6101126103ca565b60405161012193929190610aa1565b60405180910390f35b6101326104f9565b60405161013f9190610bf2565b60405180910390f35b610162600480360381019061015d919061098e565b6105d2565b005b6007818051602081018201805184825260208301602085012081835280955050505050506000915090505481565b6006604051806060016040528085815260200184815260200183815250908060018154018082558091505060019003906000526020600020906003020160009091909190915060008201518160000190805190602001906101f49291906106e8565b5060208201518160010190805190602001906102119291906106e8565b506040820151816002015550508060078360405161022f9190610c50565b908152602001604051809103902081905550505050565b606080600080600160025482805461025d90610c96565b80601f016020809104026020016040519081016040528092919081815260200182805461028990610c96565b80156102d65780601f106102ab576101008083540402835291602001916102d6565b820191906000526020600020905b8154815290600101906020018083116102b957829003601f168201915b505050505092508180546102e990610c96565b80601f016020809104026020016040519081016040528092919081815260200182805461031590610c96565b80156103625780601f1061033757610100808354040283529160200191610362565b820191906000526020600020905b81548152906001019060200180831161034557829003601f168201915b50505050509150925092509250909192565b806003908051906020019061038a9291906106e8565b506009819080600181540180825580915050600190039060005260206000200160009091909190915090805190602001906103c69291906106e8565b5050565b6060806000600360046005548280546103e290610c96565b80601f016020809104026020016040519081016040528092919081815260200182805461040e90610c96565b801561045b5780601f106104305761010080835404028352916020019161045b565b820191906000526020600020905b81548152906001019060200180831161043e57829003601f168201915b5050505050925081805461046e90610c96565b80601f016020809104026020016040519081016040528092919081815260200182805461049a90610c96565b80156104e75780601f106104bc576101008083540402835291602001916104e7565b820191906000526020600020905b8154815290600101906020018083116104ca57829003601f168201915b50505050509150925092509250909192565b60606009805480602002602001604051908101604052809291908181526020016000905b828210156105c957838290600052602060002001805461053c90610c96565b80601f016020809104026020016040519081016040528092919081815260200182805461056890610c96565b80156105b55780601f1061058a576101008083540402835291602001916105b5565b820191906000526020600020905b81548152906001019060200180831161059857829003601f168201915b50505050508152602001906001019061051d565b50505050905090565b60026007836040516105e49190610c50565b9081526020016040518091039020546105fd9190610d26565b81111561060957600080fd5b806007600460405161061b9190610deb565b9081526020016040518091039020546106349190610e02565b600760046040516106459190610deb565b9081526020016040518091039020819055506008604051806060016040528085815260200184815260200183815250908060018154018082558091505060019003906000526020600020906003020160009091909190915060008201518160000190805190602001906106b99291906106e8565b5060208201518160010190805190602001906106d69291906106e8565b50604082015181600201555050505050565b8280546106f490610c96565b90600052602060002090601f016020900481019282610716576000855561075d565b82601f1061072f57805160ff191683800117855561075d565b8280016001018555821561075d579182015b8281111561075c578251825591602001919060010190610741565b5b50905061076a919061076e565b5090565b5b8082111561078757600081600090555060010161076f565b5090565b6000604051905090565b600080fd5b600080fd5b600080fd5b600080fd5b6000601f19601f8301169050919050565b7f4e487b7100000000000000000000000000000000000000000000000000000000600052604160045260246000fd5b6107f2826107a9565b810181811067ffffffffffffffff82111715610811576108106107ba565b5b80604052505050565b600061082461078b565b905061083082826107e9565b919050565b600067ffffffffffffffff8211156108505761084f6107ba565b5b610859826107a9565b9050602081019050919050565b82818337600083830152505050565b600061088861088384610835565b61081a565b9050828152602081018484840111156108a4576108a36107a4565b5b6108af848285610866565b509392505050565b600082601f8301126108cc576108cb61079f565b5b81356108dc848260208601610875565b91505092915050565b6000602082840312156108fb576108fa610795565b5b600082013567ffffffffffffffff8111156109195761091861079a565b5b610925848285016108b7565b91505092915050565b6000819050919050565b6109418161092e565b82525050565b600060208201905061095c6000830184610938565b92915050565b61096b8161092e565b811461097657600080fd5b50565b60008135905061098881610962565b92915050565b6000806000606084860312156109a7576109a6610795565b5b600084013567ffffffffffffffff8111156109c5576109c461079a565b5b6109d1868287016108b7565b935050602084013567ffffffffffffffff8111156109f2576109f161079a565b5b6109fe868287016108b7565b9250506040610a0f86828701610979565b9150509250925092565b600081519050919050565b600082825260208201905092915050565b60005b83811015610a53578082015181840152602081019050610a38565b83811115610a62576000848401525b50505050565b6000610a7382610a19565b610a7d8185610a24565b9350610a8d818560208601610a35565b610a96816107a9565b840191505092915050565b60006060820190508181036000830152610abb8186610a68565b90508181036020830152610acf8185610a68565b9050610ade6040830184610938565b949350505050565b600081519050919050565b600082825260208201905092915050565b6000819050602082019050919050565b600082825260208201905092915050565b6000610b2e82610a19565b610b388185610b12565b9350610b48818560208601610a35565b610b51816107a9565b840191505092915050565b6000610b688383610b23565b905092915050565b6000602082019050919050565b6000610b8882610ae6565b610b928185610af1565b935083602082028501610ba485610b02565b8060005b85811015610be05784840389528151610bc18582610b5c565b9450610bcc83610b70565b925060208a01995050600181019050610ba8565b50829750879550505050505092915050565b60006020820190508181036000830152610c0c8184610b7d565b905092915050565b600081905092915050565b6000610c2a82610a19565b610c348185610c14565b9350610c44818560208601610a35565b80840191505092915050565b6000610c5c8284610c1f565b915081905092915050565b7f4e487b7100000000000000000000000000000000000000000000000000000000600052602260045260246000fd5b60006002820490506001821680610cae57607f821691505b60208210811415610cc257610cc1610c67565b5b50919050565b7f4e487b7100000000000000000000000000000000000000000000000000000000600052601260045260246000fd5b7f4e487b7100000000000000000000000000000000000000000000000000000000600052601160045260246000fd5b6000610d318261092e565b9150610d3c8361092e565b925082610d4c57610d4b610cc8565b5b828204905092915050565b60008190508160005260206000209050919050565b60008154610d7981610c96565b610d838186610c14565b94506001821660008114610d9e5760018114610daf57610de2565b60ff19831686528186019350610de2565b610db885610d57565b60005b83811015610dda57815481890152600182019150602081019050610dbb565b838801955050505b50505092915050565b6000610df78284610d6c565b915081905092915050565b6000610e0d8261092e565b9150610e188361092e565b925082821015610e2b57610e2a610cf7565b5b82820390509291505056fea2646970667358221220d29e9d9c5e93b2eb897b9d0049619e13a0716c26a28a831955632c2cd0e1837564736f6c63430008090033",
  "immutableReferences": {},
  "source": "// SPDX-License-Identifier: UNLICENSED\r\n\r\npragma solidity ^0.8.6;\r\n\r\ncontract NFTMarketPlace {\r\n    // declaring variables\r\n\r\n    string nameOfNFTPerson;\r\n    string nameOfNFT;\r\n    uint256 priceOfNFT;\r\n\r\n    string candidateName;\r\n    string GivenNFT;\r\n    uint256 GivenownershipValue;\r\n\r\n    // people who enlisted their NFTS\r\n\r\n    struct EnlistPeople {\r\n        string nameOfNFTPerson;\r\n        string nameOfNFT;\r\n        uint256 priceOfNFT;\r\n    }\r\n\r\n    // people who want to take GivenownershipValue\r\n\r\n    struct MultiplePeople {\r\n        string candidateName;\r\n        string GivenNFT;\r\n        uint256 GivenownershipValue;\r\n    }\r\n\r\n    // array for storing people who enlist their NFT\r\n\r\n    EnlistPeople[] NFTpeople;\r\n\r\n    // mapping NFT name with its price Of NFT\r\n    mapping(string => uint256) public nameToNFT;\r\n\r\n    // array for storing people who want to take half ownerships\r\n    MultiplePeople[] candidates;\r\n\r\n    // array for storing names of people who want ownership\r\n    string[] NameOfCandidates;\r\n\r\n    // function for getting and storing names of people,NFTS and price (people who enlisted)\r\n    function EnlistPeopleAndNFT(\r\n        string memory _nameOfNFTPerson,\r\n        string memory _nameOfNFT,\r\n        uint256 _priceOfNFT\r\n    ) public {\r\n        NFTpeople.push(EnlistPeople(_nameOfNFTPerson, _nameOfNFT, _priceOfNFT));\r\n        nameToNFT[_nameOfNFT] = _priceOfNFT;\r\n    }\r\n\r\n    // function for getting and storing Candidates Names\r\n\r\n    function CandidatesNames(string memory _candidateName) public {\r\n        candidateName = _candidateName;\r\n        NameOfCandidates.push(_candidateName);\r\n    }\r\n\r\n    // function for retrieve Candidate Name\r\n    function retrieveCandidateName() public view returns (string[] memory) {\r\n        return NameOfCandidates;\r\n    }\r\n\r\n    // function for selecting Candidates and giving them ownership\r\n    function selectedCandidatesAndGivingOwnerShip(\r\n        string memory _candidateName,\r\n        string memory _GivenNFT,\r\n        uint256 _GivenownershipValue\r\n    ) public {\r\n        require(_GivenownershipValue <= ((nameToNFT[_GivenNFT]) / 2));\r\n\r\n        nameToNFT[GivenNFT] = nameToNFT[GivenNFT] - _GivenownershipValue;\r\n\r\n        candidates.push(\r\n            MultiplePeople(_candidateName, _GivenNFT, _GivenownershipValue)\r\n        );\r\n    }\r\n\r\n    // showing NFT people name , NFTS and funds\r\n    function showingOwnershipOfNFTPeople()\r\n        public\r\n        view\r\n        returns (\r\n            string memory,\r\n            string memory,\r\n            uint256\r\n        )\r\n    {\r\n        return (nameOfNFTPerson, nameOfNFT, priceOfNFT);\r\n    }\r\n\r\n    // showing candidates name , NFTS and funds\r\n\r\n    function showingOwnershipOfMultiplePeople()\r\n        public\r\n        view\r\n        returns (\r\n            string memory,\r\n            string memory,\r\n            uint256\r\n        )\r\n    {\r\n        return (candidateName, GivenNFT, GivenownershipValue);\r\n    }\r\n}\r\n",
  "sourcePath": "C:\\Users\\TechEnclave Computer\\Desktop\\XORD\\Hackathon\\contracts\\NFTMarketPlace.sol",
  "compiler": {
    "name": "solc",
    "version": "0.8.9+commit.e5eed63a.Emscripten.clang"
  },
  "schemaVersion": "3.4.3",
  "updatedAt": "2021-10-28T16:54:29.528Z",
  "devdoc": {
    "kind": "dev",
    "methods": {},
    "version": 1
  },
  "userdoc": {
    "kind": "user",
    "methods": {},
    "version": 1
  }
}